:100000006F00403F00000000B004000064040000E6
:1000100000000000000000000000000000000000E0
:1000200000000000000000000000000000000000D0
:1000300064040000000000006404000000000000F0
:100040006404000064040000640400006404000010
:100050006404000064040000640400006404000000
:1000600064040000640400006404000064040000F0
:1000700064040000640400006404000064040000E0
:1000800064040000640400006404000064040000D0
:100090006404000064040000640400000000000028
:1000A000634E050263C305042E86AA857D5515C2DD
:1000B00085466378B6006356C00006068606E36C84
:1000C000B6FE014563E4C500918D558D858205829C
:1000D000F5FA82808682C93F2E8582823305A04050
:1000E0006347B000B305B040C1B7B305B0408682E6
:1000F000653F3305A0408282868263C7050063495D
:1001000005005D372E858282B305B040E35B05FEB6
:100110003305A040513F3305B040828200003111C9
:1001200026C406C822C6AE84AA87B28599C60143F2
:1001300063D79600B684054319A00143A68633848D
:10014000964063530400014422863A853EC21AC099
:10015000A92B024392472A87B30685000146B3853F
:10016000C4406342B00463D304008144B385960065
:100170003385E540630403026372B7029307A0026C
:10018000A38FF5FE9386F5FF637AD700238FF5FEE4
:100190009386E5FF6374D700A38EF5FEC240324418
:1001A000A24451018280B385C70003C50500B38511
:1001B000C60005062380A5005DB7B70700E093875A
:1001C000470F9843137707086DFF372730781307D9
:1001D0008708B70600E098C39386460F714725430A
:1001E000F1559C4293F70708EDFF3356E5003D8A31
:1001F000930770056364C30093070003B297A207D7
:1002000093E757089CC27117E31DB7FC8280011168
:1002100006CE22CC26CA02C02A836357050089E68F
:1002200085473303A0403EC0058A1304100619C257
:1002300013041004BA8459141A853AC81AC22EC677
:100240001AC4493DA5472243B24542479376F50F6C
:1002500063E1A7069386060393F6F60F93871400CF
:100260002380D4001A853AC83EC62EC4353D924636
:10027000A245B24742472A8363FBB602824699C62B
:100280009306D0022380D700938724003385E7406C
:100290009356F501AA962380070085860146FD172F
:1002A000634BD600F2406244D24405618280BE8432
:1002B00061B7A29655B7B305C70083C2070003C351
:1002C000050005062380550023806700C9BF372736
:1002D00002401C4B014593F7070899E7084BA167BB
:1002E0007D8D1335150005058280B70700E09387E3
:1002F000470F9C438280011122CC370400E0130495
:10030000440F184006CE26CA2AC01377070C93065E
:10031000000C630BD70002C8AE84E9E11C4089C71A
:1003200093F7070891E3D1378144F2406244268570
:10033000D244056182803386E4409D45B28663D312
:10034000C5009D46B70508008505084013730508DC
:10035000631F030601C936C632C43AC27937B246B2
:100360002246124793253600014699E11386D6FFAF
:100370008247930537000808BE9536C43AC23D2E21
:10038000C24582471247370600E0A2461306860F91
:100390000CC20D45B385E700014683C20500050682
:1003A0009307060133832700230053006385C600AB
:1003B0008505E314A6FE13864600136606F8230897
:1003C000C1004246369710C0E34797F6B9BFFD1506
:1003D000ADFD1C4093E7070C1CC0B9B70147EDB752
:1003E000511122C206C42E843937A24022851244FC
:1003F0003101828097010020938181001381414067
:1004000013050008731005308D461705000013050D
:1004100065BF558D73105530138541C0938541C01C
:1004200001466356B50010C11105E34EB5FE170530
:1004300000001305E54B938541C0138641C06388D6
:10044000C500144194C111059105E39AC5FEB7F7A3
:1004500000E0154798C381479307E07C73901734F9
:100460007300203073251034893B73250030B1337D
:10047000732530349933732520348133B70700E076
:100480009387470F9843137707086DFF0567130796
:1004900057A898C3B70700E09387470F984313778F
:1004A00007086DFF37B7AAAA130737A898C301A09A
:1004B000371702401C47B7068000D58F1CC7AA8794
:1004C00003C7070001E73385A74082808507CDBFBA
:1004D000130141FAA2CAA6C886CC2AC02EC2328411
:1004E000B68402CA8347040093061400A30FF100E8
:1004F00081EBE64056445245C6441301C105828053
:1005000036C6130750026380E702124682478545CC
:100510001305F1018297B24626C43684D247A2441D
:10052000AA973ECAC1B703471400130600039306F7
:100530000003A30FE10032C6930724006312D7081B
:100540003E8481468147A54511A8139727000504DD
:10055000BA970347F4FF8607B2978546130607FD4F
:100560001375F60FE3F3A5FE99C2A30FE1003EC891
:10057000E14663D3F60036C81306C0068146631809
:10058000C7000347040085460504A30FE1000346A6
:10059000F101130740066305E6066367C702930788
:1005A00080056300F60A93073006630DF60A31D220
:1005B0001246824785451305F101829726C4B9BFCB
:1005C0009306000236C6ADBF13075007630AE60262
:1005D000130780076307E60613073007E31AE6FCF4
:1005E0003ECC9387440084403EC42685C93DE24703
:1005F000AA856356F008C2463246381826851DA0E3
:10060000938744003EC495C61306B6F81810933677
:10061000160088400146A945DD3EC24632463818DC
:10062000AA850810ED3C1246AA85281882478297B1
:10063000F5B59307500718108546E30CF6FC814684
:10064000C9BF8840130686FA938744001810854670
:1006500013361600C1453EC45D3EC2463246AA85E9
:100660003818C1B7938744003EC49C40C246324606
:10067000A30FF100381885451305F10165B712463F
:1006800026856DB71301C1FD32CA2A862EC836CC25
:10069000814514081305003E06C63ACE3ED036C04A
:1006A000053DB2401301410282802A96AA876393D6
:1006B000C70082802380B7008507D5BF81476313B9
:1006C000F60082803387F500834607003307F50084
:1006D00085072300D700E5B7511106C422C226C002
:1006E000AA84F13B2A84AA85268531310565854592
:1006F0001305058B0931A2401305140012448244EE
:1007000031018280B70700E09387470F9843930633
:10071000000C1377070C6309D70451113707080041
:1007200022C206C42A840507944313F6060815E27C
:1007300091C2653E4167130707F093178400F98F54
:10074000370700E093E757081307470F1CC3054519
:1007500001A87D1771FB984301451367070C98C3E7
:10076000A24012443101828001458280B7270240B5
:10077000054798C3B71702403707080123A20700AF
:100780001307170898C337079F0098C73717024009
:100790001C4393966700E3DD06FE5C43B7160240F8
:1007A000F19B93E727005CC32147DC42B18BE39EBA
:1007B000E7FEB70700E09387870F23A00700B7077E
:1007C00000E09387470F1307000898C382805D718C
:1007D00086C6A2C4A6C2593FDD3C89476306F5041C
:1007E000B707674537270240938737125CC3B7972F
:1007F000EFCD9387B79A5CC3B7270240D847058BE4
:1008000075FF3707674513073712D8D33797EFCDF2
:100810001307B79AD8D3372702405C47858BF5FF7B
:100820007D348947631BF506B74700083727024028
:10083000938707FC5CCBB7070200938707041CCBA8
:100840005C47858BF5FFB7450008130600049385C8
:1008500005FC4800A53505651305058DB53D8147A7
:10086000014485643EC093074400338727008345D5
:1008700007001385448E39358247BD46138717001C
:10088000639BD7002945BD3D81470504130700043C
:10089000E31AE4FC01A0BA87CDBF05651305458BBB
:1008A000253DB640264496447D5561618280000016
:1008B0000A0000004572726F723A20466C617368DC
:1008C00020556E6C6F636B204661696C65642E0009
:1008D0000A0A4279746573204020506167652032AE
:0C08E00035353A00253032582020000049
:00000001FF
